{
  "_format": "hh-sol-artifact-1",
  "contractName": "Auction",
  "sourceName": "contracts/Auction.sol",
  "abi": [
    {
      "inputs": [
        {
          "internalType": "address",
          "name": "_manager",
          "type": "address"
        },
        {
          "internalType": "string",
          "name": "_title",
          "type": "string"
        },
        {
          "internalType": "uint256",
          "name": "_maxOffer",
          "type": "uint256"
        },
        {
          "internalType": "string",
          "name": "_description",
          "type": "string"
        },
        {
          "internalType": "uint256",
          "name": "_submissionDeadline",
          "type": "uint256"
        },
        {
          "internalType": "uint256",
          "name": "_startDate",
          "type": "uint256"
        },
        {
          "internalType": "uint256",
          "name": "_endDate",
          "type": "uint256"
        }
      ],
      "stateMutability": "nonpayable",
      "type": "constructor"
    },
    {
      "anonymous": false,
      "inputs": [
        {
          "indexed": true,
          "internalType": "address",
          "name": "manager",
          "type": "address"
        },
        {
          "indexed": false,
          "internalType": "string",
          "name": "title",
          "type": "string"
        },
        {
          "indexed": false,
          "internalType": "uint256",
          "name": "maxOffer",
          "type": "uint256"
        },
        {
          "indexed": false,
          "internalType": "string",
          "name": "description",
          "type": "string"
        },
        {
          "indexed": false,
          "internalType": "uint256",
          "name": "endDate",
          "type": "uint256"
        },
        {
          "indexed": false,
          "internalType": "enum Auction.AuctionStatus",
          "name": "status",
          "type": "uint8"
        }
      ],
      "name": "canceledAuction",
      "type": "event"
    },
    {
      "anonymous": false,
      "inputs": [
        {
          "indexed": false,
          "internalType": "uint256",
          "name": "offer",
          "type": "uint256"
        },
        {
          "indexed": true,
          "internalType": "address",
          "name": "auction",
          "type": "address"
        },
        {
          "indexed": false,
          "internalType": "string",
          "name": "description",
          "type": "string"
        },
        {
          "indexed": true,
          "internalType": "address",
          "name": "bidder",
          "type": "address"
        },
        {
          "indexed": false,
          "internalType": "enum Auction.BidStatus",
          "name": "status",
          "type": "uint8"
        }
      ],
      "name": "canceledBid",
      "type": "event"
    },
    {
      "anonymous": false,
      "inputs": [
        {
          "indexed": true,
          "internalType": "address",
          "name": "manager",
          "type": "address"
        },
        {
          "indexed": false,
          "internalType": "string",
          "name": "title",
          "type": "string"
        },
        {
          "indexed": false,
          "internalType": "uint256",
          "name": "maxOffer",
          "type": "uint256"
        },
        {
          "indexed": false,
          "internalType": "string",
          "name": "description",
          "type": "string"
        },
        {
          "indexed": false,
          "internalType": "uint256",
          "name": "endDate",
          "type": "uint256"
        },
        {
          "indexed": true,
          "internalType": "address",
          "name": "winningBidder",
          "type": "address"
        },
        {
          "indexed": false,
          "internalType": "uint256",
          "name": "winningBid",
          "type": "uint256"
        },
        {
          "indexed": false,
          "internalType": "enum Auction.AuctionStatus",
          "name": "status",
          "type": "uint8"
        }
      ],
      "name": "finalizedAuction",
      "type": "event"
    },
    {
      "anonymous": false,
      "inputs": [
        {
          "indexed": false,
          "internalType": "uint256",
          "name": "offer",
          "type": "uint256"
        },
        {
          "indexed": true,
          "internalType": "address",
          "name": "auction",
          "type": "address"
        },
        {
          "indexed": false,
          "internalType": "string",
          "name": "description",
          "type": "string"
        },
        {
          "indexed": true,
          "internalType": "address",
          "name": "bidder",
          "type": "address"
        },
        {
          "indexed": false,
          "internalType": "enum Auction.BidStatus",
          "name": "status",
          "type": "uint8"
        }
      ],
      "name": "placedBid",
      "type": "event"
    },
    {
      "inputs": [],
      "name": "auctionInfo",
      "outputs": [
        {
          "internalType": "address",
          "name": "manager",
          "type": "address"
        },
        {
          "internalType": "string",
          "name": "title",
          "type": "string"
        },
        {
          "internalType": "uint256",
          "name": "maxOffer",
          "type": "uint256"
        },
        {
          "internalType": "string",
          "name": "description",
          "type": "string"
        },
        {
          "internalType": "uint256",
          "name": "submissionDeadline",
          "type": "uint256"
        },
        {
          "internalType": "uint256",
          "name": "startDate",
          "type": "uint256"
        },
        {
          "internalType": "uint256",
          "name": "endDate",
          "type": "uint256"
        },
        {
          "internalType": "enum Auction.AuctionStatus",
          "name": "status",
          "type": "uint8"
        }
      ],
      "stateMutability": "view",
      "type": "function"
    },
    {
      "inputs": [],
      "name": "auctionStatus",
      "outputs": [
        {
          "internalType": "enum Auction.AuctionStatus",
          "name": "",
          "type": "uint8"
        }
      ],
      "stateMutability": "view",
      "type": "function"
    },
    {
      "inputs": [
        {
          "internalType": "address",
          "name": "",
          "type": "address"
        }
      ],
      "name": "biddingByBidder",
      "outputs": [
        {
          "internalType": "address",
          "name": "bidder",
          "type": "address"
        },
        {
          "internalType": "uint256",
          "name": "offerAmount",
          "type": "uint256"
        },
        {
          "internalType": "string",
          "name": "description",
          "type": "string"
        },
        {
          "internalType": "enum Auction.BidStatus",
          "name": "status",
          "type": "uint8"
        }
      ],
      "stateMutability": "view",
      "type": "function"
    },
    {
      "inputs": [],
      "name": "cancelAuction",
      "outputs": [],
      "stateMutability": "nonpayable",
      "type": "function"
    },
    {
      "inputs": [],
      "name": "cancelBid",
      "outputs": [],
      "stateMutability": "nonpayable",
      "type": "function"
    },
    {
      "inputs": [
        {
          "internalType": "address",
          "name": "_winningBidder",
          "type": "address"
        },
        {
          "internalType": "uint256",
          "name": "_winningBid",
          "type": "uint256"
        }
      ],
      "name": "finalizeAuction",
      "outputs": [],
      "stateMutability": "nonpayable",
      "type": "function"
    },
    {
      "inputs": [],
      "name": "getBidders",
      "outputs": [
        {
          "internalType": "address[]",
          "name": "",
          "type": "address[]"
        }
      ],
      "stateMutability": "view",
      "type": "function"
    },
    {
      "inputs": [],
      "name": "maxBidOffer",
      "outputs": [
        {
          "internalType": "uint256",
          "name": "",
          "type": "uint256"
        }
      ],
      "stateMutability": "view",
      "type": "function"
    },
    {
      "inputs": [
        {
          "internalType": "uint256",
          "name": "_offer",
          "type": "uint256"
        },
        {
          "internalType": "string",
          "name": "description",
          "type": "string"
        }
      ],
      "name": "placeBid",
      "outputs": [],
      "stateMutability": "nonpayable",
      "type": "function"
    },
    {
      "inputs": [],
      "name": "winningBid",
      "outputs": [
        {
          "internalType": "uint256",
          "name": "",
          "type": "uint256"
        }
      ],
      "stateMutability": "view",
      "type": "function"
    },
    {
      "inputs": [],
      "name": "winningBidder",
      "outputs": [
        {
          "internalType": "address",
          "name": "",
          "type": "address"
        }
      ],
      "stateMutability": "view",
      "type": "function"
    }
  ],
  "bytecode": "0x60806040523480156200001157600080fd5b50604051620025c2380380620025c283398181016040528101906200003791906200039b565b6000600860006101000a81548160ff0219169083600281111562000084577f4e487b7100000000000000000000000000000000000000000000000000000000600052602160045260246000fd5b02179055506040518061010001604052808873ffffffffffffffffffffffffffffffffffffffff168152602001878152602001868152602001858152602001848152602001838152602001828152602001600860009054906101000a900460ff1660028111156200011e577f4e487b7100000000000000000000000000000000000000000000000000000000600052602160045260246000fd5b8152506000808201518160000160006101000a81548173ffffffffffffffffffffffffffffffffffffffff021916908373ffffffffffffffffffffffffffffffffffffffff1602179055506020820151816001019080519060200190620001879291906200024b565b50604082015181600201556060820151816003019080519060200190620001b09291906200024b565b506080820151816004015560a0820151816005015560c0820151816006015560e08201518160070160006101000a81548160ff0219169083600281111562000221577f4e487b7100000000000000000000000000000000000000000000000000000000600052602160045260246000fd5b0217905550905050600185620002389190620004e1565b600d8190555050505050505050620006a9565b8280546200025990620005b2565b90600052602060002090601f0160209004810192826200027d5760008555620002c9565b82601f106200029857805160ff1916838001178555620002c9565b82800160010185558215620002c9579182015b82811115620002c8578251825591602001919060010190620002ab565b5b509050620002d89190620002dc565b5090565b5b80821115620002f7576000816000905550600101620002dd565b5090565b6000620003126200030c84620004ae565b6200047a565b9050828152602081018484840111156200032b57600080fd5b620003388482856200057c565b509392505050565b600081519050620003518162000675565b92915050565b600082601f8301126200036957600080fd5b81516200037b848260208601620002fb565b91505092915050565b60008151905062000395816200068f565b92915050565b600080600080600080600060e0888a031215620003b757600080fd5b6000620003c78a828b0162000340565b975050602088015167ffffffffffffffff811115620003e557600080fd5b620003f38a828b0162000357565b9650506040620004068a828b0162000384565b955050606088015167ffffffffffffffff8111156200042457600080fd5b620004328a828b0162000357565b9450506080620004458a828b0162000384565b93505060a0620004588a828b0162000384565b92505060c06200046b8a828b0162000384565b91505092959891949750929550565b6000604051905081810181811067ffffffffffffffff82111715620004a457620004a362000646565b5b8060405250919050565b600067ffffffffffffffff821115620004cc57620004cb62000646565b5b601f19601f8301169050602081019050919050565b6000620004ee8262000572565b9150620004fb8362000572565b9250827fffffffffffffffffffffffffffffffffffffffffffffffffffffffffffffffff03821115620005335762000532620005e8565b5b828201905092915050565b60006200054b8262000552565b9050919050565b600073ffffffffffffffffffffffffffffffffffffffff82169050919050565b6000819050919050565b60005b838110156200059c5780820151818401526020810190506200057f565b83811115620005ac576000848401525b50505050565b60006002820490506001821680620005cb57607f821691505b60208210811415620005e257620005e162000617565b5b50919050565b7f4e487b7100000000000000000000000000000000000000000000000000000000600052601160045260246000fd5b7f4e487b7100000000000000000000000000000000000000000000000000000000600052602260045260246000fd5b7f4e487b7100000000000000000000000000000000000000000000000000000000600052604160045260246000fd5b62000680816200053e565b81146200068c57600080fd5b50565b6200069a8162000572565b8114620006a657600080fd5b50565b611f0980620006b96000396000f3fe608060405234801561001057600080fd5b50600436106100a95760003560e01c80638890ed09116100715780638890ed091461015c5780638cf804381461017a5780638fa8b790146101985780639435c887146101a25780639d6a0f28146101ac578063cb6632ef146101ca576100a9565b8063204b6542146100ae57806337aab063146100e157806355d64d03146100fd578063689051161461012257806377d323001461013e575b600080fd5b6100c860048036038101906100c39190611418565b6101e8565b6040516100d8949392919061194a565b60405180910390f35b6100fb60048036038101906100f6919061147d565b6102cd565b005b6101056106d0565b6040516101199897969594939291906118be565b60405180910390f35b61013c60048036038101906101379190611441565b610843565b005b610146610cc1565b6040516101539190611b83565b60405180910390f35b610164610cc7565b60405161017191906118a3565b60405180910390f35b610182610ced565b60405161018f9190611b83565b60405180910390f35b6101a0610cf3565b005b6101aa610f35565b005b6101b461114f565b6040516101c191906119b8565b60405180910390f35b6101d2611162565b6040516101df9190611996565b60405180910390f35b600c6020528060005260406000206000915090508060000160009054906101000a900473ffffffffffffffffffffffffffffffffffffffff169080600101549080600201805461023790611dad565b80601f016020809104026020016040519081016040528092919081815260200182805461026390611dad565b80156102b05780601f10610285576101008083540402835291602001916102b0565b820191906000526020600020905b81548152906001019060200180831161029357829003601f168201915b5050505050908060030160009054906101000a900460ff16905084565b6102e133600a61117390919063ffffffff16565b15610321576040517f08c379a000000000000000000000000000000000000000000000000000000000815260040161031890611aa3565b60405180910390fd5b6000600281111561035b577f4e487b7100000000000000000000000000000000000000000000000000000000600052602160045260246000fd5b600860009054906101000a900460ff1660028111156103a3577f4e487b7100000000000000000000000000000000000000000000000000000000600052602160045260246000fd5b1480156103b4575042600060060154115b6103f3576040517f08c379a00000000000000000000000000000000000000000000000000000000081526004016103ea90611ae3565b60405180910390fd5b81600d5411610437576040517f08c379a000000000000000000000000000000000000000000000000000000000815260040161042e90611b63565b60405180910390fd5b6000800160009054906101000a900473ffffffffffffffffffffffffffffffffffffffff1673ffffffffffffffffffffffffffffffffffffffff163373ffffffffffffffffffffffffffffffffffffffff1614156104ca576040517f08c379a00000000000000000000000000000000000000000000000000000000081526004016104c190611ac3565b60405180910390fd5b600060405180608001604052803373ffffffffffffffffffffffffffffffffffffffff16815260200184815260200183815260200160026003811115610539577f4e487b7100000000000000000000000000000000000000000000000000000000600052602160045260246000fd5b815250905080600c60003373ffffffffffffffffffffffffffffffffffffffff1673ffffffffffffffffffffffffffffffffffffffff16815260200190815260200160002060008201518160000160006101000a81548173ffffffffffffffffffffffffffffffffffffffff021916908373ffffffffffffffffffffffffffffffffffffffff1602179055506020820151816001015560408201518160020190805190602001906105eb9291906112e3565b5060608201518160030160006101000a81548160ff0219169083600381111561063d577f4e487b7100000000000000000000000000000000000000000000000000000000600052602160045260246000fd5b021790555090505082600d8190555061066033600a6111a390919063ffffffff16565b503373ffffffffffffffffffffffffffffffffffffffff163073ffffffffffffffffffffffffffffffffffffffff167f8eac381553b34d2521dd29adf401a9688539208fdea5a6abc5e17126cf6ae065858560026040516106c393929190611b9e565b60405180910390a3505050565b60008060000160009054906101000a900473ffffffffffffffffffffffffffffffffffffffff169080600101805461070790611dad565b80601f016020809104026020016040519081016040528092919081815260200182805461073390611dad565b80156107805780601f1061075557610100808354040283529160200191610780565b820191906000526020600020905b81548152906001019060200180831161076357829003601f168201915b50505050509080600201549080600301805461079b90611dad565b80601f01602080910402602001604051908101604052809291908181526020018280546107c790611dad565b80156108145780601f106107e957610100808354040283529160200191610814565b820191906000526020600020905b8154815290600101906020018083116107f757829003601f168201915b5050505050908060040154908060050154908060060154908060070160009054906101000a900460ff16905088565b3373ffffffffffffffffffffffffffffffffffffffff166000800160009054906101000a900473ffffffffffffffffffffffffffffffffffffffff1673ffffffffffffffffffffffffffffffffffffffff16146108d5576040517f08c379a00000000000000000000000000000000000000000000000000000000081526004016108cc90611b43565b60405180910390fd5b6000600281111561090f577f4e487b7100000000000000000000000000000000000000000000000000000000600052602160045260246000fd5b600860009054906101000a900460ff166002811115610957577f4e487b7100000000000000000000000000000000000000000000000000000000600052602160045260246000fd5b14610997576040517f08c379a000000000000000000000000000000000000000000000000000000000815260040161098e90611b03565b60405180910390fd5b6003808111156109d0577f4e487b7100000000000000000000000000000000000000000000000000000000600052602160045260246000fd5b600c60008473ffffffffffffffffffffffffffffffffffffffff1673ffffffffffffffffffffffffffffffffffffffff16815260200190815260200160002060030160009054906101000a900460ff166003811115610a58577f4e487b7100000000000000000000000000000000000000000000000000000000600052602160045260246000fd5b1415610a99576040517f08c379a0000000000000000000000000000000000000000000000000000000008152600401610a9090611b23565b60405180910390fd5b81600860016101000a81548173ffffffffffffffffffffffffffffffffffffffff021916908373ffffffffffffffffffffffffffffffffffffffff160217905550806009819055506000600c6000600860019054906101000a900473ffffffffffffffffffffffffffffffffffffffff1673ffffffffffffffffffffffffffffffffffffffff1673ffffffffffffffffffffffffffffffffffffffff16815260200190815260200160002060030160006101000a81548160ff02191690836003811115610b8f577f4e487b7100000000000000000000000000000000000000000000000000000000600052602160045260246000fd5b02179055506001600860006101000a81548160ff02191690836002811115610be0577f4e487b7100000000000000000000000000000000000000000000000000000000600052602160045260246000fd5b0217905550600860019054906101000a900473ffffffffffffffffffffffffffffffffffffffff1673ffffffffffffffffffffffffffffffffffffffff166000800160009054906101000a900473ffffffffffffffffffffffffffffffffffffffff1673ffffffffffffffffffffffffffffffffffffffff167ffa2a17709581a9fd6d8f84c5386fb1355df64a889ed7793caee93acc74d6fa3d60006001016000600201546000600301600060060154600954600860009054906101000a900460ff16604051610cb596959493929190611a34565b60405180910390a35050565b600d5481565b600860019054906101000a900473ffffffffffffffffffffffffffffffffffffffff1681565b60095481565b3373ffffffffffffffffffffffffffffffffffffffff166000800160009054906101000a900473ffffffffffffffffffffffffffffffffffffffff1673ffffffffffffffffffffffffffffffffffffffff1614610d85576040517f08c379a0000000000000000000000000000000000000000000000000000000008152600401610d7c90611b43565b60405180910390fd5b60006002811115610dbf577f4e487b7100000000000000000000000000000000000000000000000000000000600052602160045260246000fd5b600860009054906101000a900460ff166002811115610e07577f4e487b7100000000000000000000000000000000000000000000000000000000600052602160045260246000fd5b14610e47576040517f08c379a0000000000000000000000000000000000000000000000000000000008152600401610e3e90611ae3565b60405180910390fd5b6002600860006101000a81548160ff02191690836002811115610e93577f4e487b7100000000000000000000000000000000000000000000000000000000600052602160045260246000fd5b02179055506000800160009054906101000a900473ffffffffffffffffffffffffffffffffffffffff1673ffffffffffffffffffffffffffffffffffffffff167fe293ba7f0d43a3fe09a5996ce1030e543b494d787ad7a700e441a79e5d18b8fb60006001016000600201546000600301600060060154600860009054906101000a900460ff16604051610f2b9594939291906119d3565b60405180910390a2565b60006002811115610f6f577f4e487b7100000000000000000000000000000000000000000000000000000000600052602160045260246000fd5b600860009054906101000a900460ff166002811115610fb7577f4e487b7100000000000000000000000000000000000000000000000000000000600052602160045260246000fd5b148015610fc8575042600060060154115b611007576040517f08c379a0000000000000000000000000000000000000000000000000000000008152600401610ffe90611ae3565b60405180910390fd5b6003600c60003373ffffffffffffffffffffffffffffffffffffffff1673ffffffffffffffffffffffffffffffffffffffff16815260200190815260200160002060030160006101000a81548160ff02191690836003811115611093577f4e487b7100000000000000000000000000000000000000000000000000000000600052602160045260246000fd5b02179055506000600c60003373ffffffffffffffffffffffffffffffffffffffff1673ffffffffffffffffffffffffffffffffffffffff16815260200190815260200160002090503373ffffffffffffffffffffffffffffffffffffffff163073ffffffffffffffffffffffffffffffffffffffff167fdda016ec259a901cf2b863f84aca91d8262e631e5a84bbab10910a976e2166f1836001015484600201600360405161114493929190611bdc565b60405180910390a350565b600860009054906101000a900460ff1681565b606061116e600a6111d3565b905090565b600061119b836000018373ffffffffffffffffffffffffffffffffffffffff1660001b6111f4565b905092915050565b60006111cb836000018373ffffffffffffffffffffffffffffffffffffffff1660001b611217565b905092915050565b606060006111e383600001611287565b905060608190508092505050919050565b600080836001016000848152602001908152602001600020541415905092915050565b600061122383836111f4565b61127c578260000182908060018154018082558091505060019003906000526020600020016000909190919091505582600001805490508360010160008481526020019081526020016000208190555060019050611281565b600090505b92915050565b6060816000018054806020026020016040519081016040528092919081815260200182805480156112d757602002820191906000526020600020905b8154815260200190600101908083116112c3575b50505050509050919050565b8280546112ef90611dad565b90600052602060002090601f0160209004810192826113115760008555611358565b82601f1061132a57805160ff1916838001178555611358565b82800160010185558215611358579182015b8281111561135757825182559160200191906001019061133c565b5b5090506113659190611369565b5090565b5b8082111561138257600081600090555060010161136a565b5090565b600061139961139484611c4b565b611c1a565b9050828152602081018484840111156113b157600080fd5b6113bc848285611d6b565b509392505050565b6000813590506113d381611ea5565b92915050565b600082601f8301126113ea57600080fd5b81356113fa848260208601611386565b91505092915050565b60008135905061141281611ebc565b92915050565b60006020828403121561142a57600080fd5b6000611438848285016113c4565b91505092915050565b6000806040838503121561145457600080fd5b6000611462858286016113c4565b925050602061147385828601611403565b9150509250929050565b6000806040838503121561149057600080fd5b600061149e85828601611403565b925050602083013567ffffffffffffffff8111156114bb57600080fd5b6114c7858286016113d9565b9150509250929050565b60006114dd83836114e9565b60208301905092915050565b6114f281611ce5565b82525050565b61150181611ce5565b82525050565b600061151282611ca0565b61151c8185611cc3565b935061152783611c7b565b8060005b8381101561155857815161153f88826114d1565b975061154a83611cb6565b92505060018101905061152b565b5085935050505092915050565b61156e81611d47565b82525050565b61157d81611d59565b82525050565b600061158e82611cab565b6115988185611cd4565b93506115a8818560208601611d7a565b6115b181611e6c565b840191505092915050565b600081546115c981611dad565b6115d38186611cd4565b945060018216600081146115ee576001811461160057611633565b60ff1983168652602086019350611633565b61160985611c8b565b60005b8381101561162b5781548189015260018201915060208101905061160c565b808801955050505b50505092915050565b6000611649601783611cd4565b91507f557365722068617320616c7265616479206a6f696e65640000000000000000006000830152602082019050919050565b6000611689602283611cd4565b91507f596f752063616e277420626964206f6e20796f7572206f776e2061756374696f60008301527f6e2e0000000000000000000000000000000000000000000000000000000000006020830152604082019050919050565b60006116ef602383611cd4565b91507f41756374696f6e2068617320616c7265616479206265656e2066696e616c697a60008301527f65642e00000000000000000000000000000000000000000000000000000000006020830152604082019050919050565b6000611755602283611cd4565b91507f41756374696f6e2068617320616c7265616479206265656e2066696e616c697a60008301527f65640000000000000000000000000000000000000000000000000000000000006020830152604082019050919050565b60006117bb601d83611cd4565b91507f4269642068617320616c7265616479206265656e2063616e63656c65640000006000830152602082019050919050565b60006117fb601583611cd4565b91507f43616c6c6572206973206e6f74206d616e6167657200000000000000000000006000830152602082019050919050565b600061183b603183611cd4565b91507f4f66666572206e6565647320746f20626520736d616c6c6572207468616e207460008301527f68652070726576696f7573206f666665720000000000000000000000000000006020830152604082019050919050565b61189d81611d3d565b82525050565b60006020820190506118b860008301846114f8565b92915050565b6000610100820190506118d4600083018b6114f8565b81810360208301526118e6818a611583565b90506118f56040830189611894565b81810360608301526119078188611583565b90506119166080830187611894565b61192360a0830186611894565b61193060c0830185611894565b61193d60e0830184611565565b9998505050505050505050565b600060808201905061195f60008301876114f8565b61196c6020830186611894565b818103604083015261197e8185611583565b905061198d6060830184611574565b95945050505050565b600060208201905081810360008301526119b08184611507565b905092915050565b60006020820190506119cd6000830184611565565b92915050565b600060a08201905081810360008301526119ed81886115bc565b90506119fc6020830187611894565b8181036040830152611a0e81866115bc565b9050611a1d6060830185611894565b611a2a6080830184611565565b9695505050505050565b600060c0820190508181036000830152611a4e81896115bc565b9050611a5d6020830188611894565b8181036040830152611a6f81876115bc565b9050611a7e6060830186611894565b611a8b6080830185611894565b611a9860a0830184611565565b979650505050505050565b60006020820190508181036000830152611abc8161163c565b9050919050565b60006020820190508181036000830152611adc8161167c565b9050919050565b60006020820190508181036000830152611afc816116e2565b9050919050565b60006020820190508181036000830152611b1c81611748565b9050919050565b60006020820190508181036000830152611b3c816117ae565b9050919050565b60006020820190508181036000830152611b5c816117ee565b9050919050565b60006020820190508181036000830152611b7c8161182e565b9050919050565b6000602082019050611b986000830184611894565b92915050565b6000606082019050611bb36000830186611894565b8181036020830152611bc58185611583565b9050611bd46040830184611574565b949350505050565b6000606082019050611bf16000830186611894565b8181036020830152611c0381856115bc565b9050611c126040830184611574565b949350505050565b6000604051905081810181811067ffffffffffffffff82111715611c4157611c40611e3d565b5b8060405250919050565b600067ffffffffffffffff821115611c6657611c65611e3d565b5b601f19601f8301169050602081019050919050565b6000819050602082019050919050565b60008190508160005260206000209050919050565b600081519050919050565b600081519050919050565b6000602082019050919050565b600082825260208201905092915050565b600082825260208201905092915050565b6000611cf082611d1d565b9050919050565b6000819050611d0582611e7d565b919050565b6000819050611d1882611e91565b919050565b600073ffffffffffffffffffffffffffffffffffffffff82169050919050565b6000819050919050565b6000611d5282611cf7565b9050919050565b6000611d6482611d0a565b9050919050565b82818337600083830152505050565b60005b83811015611d98578082015181840152602081019050611d7d565b83811115611da7576000848401525b50505050565b60006002820490506001821680611dc557607f821691505b60208210811415611dd957611dd8611e0e565b5b50919050565b7f4e487b7100000000000000000000000000000000000000000000000000000000600052602160045260246000fd5b7f4e487b7100000000000000000000000000000000000000000000000000000000600052602260045260246000fd5b7f4e487b7100000000000000000000000000000000000000000000000000000000600052604160045260246000fd5b6000601f19601f8301169050919050565b60038110611e8e57611e8d611ddf565b5b50565b60048110611ea257611ea1611ddf565b5b50565b611eae81611ce5565b8114611eb957600080fd5b50565b611ec581611d3d565b8114611ed057600080fd5b5056fea26469706673582212208fadcddbd262a8da570c2d5b87914e71647868b5418fcfbb622d45a08f1fb48964736f6c63430008000033",
  "linkReferences": {},
  "deployedLinkReferences": {}
}