{
  "_format": "hh-sol-artifact-1",
  "contractName": "Auction",
  "sourceName": "contracts/Auction.sol",
  "abi": [
    {
      "inputs": [
        {
          "internalType": "address",
          "name": "_manager",
          "type": "address"
        },
        {
          "internalType": "string",
          "name": "_title",
          "type": "string"
        },
        {
          "internalType": "uint256",
          "name": "_maxOffer",
          "type": "uint256"
        },
        {
          "internalType": "string",
          "name": "_description",
          "type": "string"
        },
        {
          "internalType": "uint256",
          "name": "_submissionDeadline",
          "type": "uint256"
        },
        {
          "internalType": "uint256",
          "name": "_startDate",
          "type": "uint256"
        },
        {
          "internalType": "uint256",
          "name": "_endDate",
          "type": "uint256"
        }
      ],
      "stateMutability": "nonpayable",
      "type": "constructor"
    },
    {
      "anonymous": false,
      "inputs": [
        {
          "indexed": true,
          "internalType": "address",
          "name": "manager",
          "type": "address"
        },
        {
          "indexed": false,
          "internalType": "string",
          "name": "title",
          "type": "string"
        },
        {
          "indexed": false,
          "internalType": "string",
          "name": "description",
          "type": "string"
        },
        {
          "indexed": false,
          "internalType": "uint256",
          "name": "maxOffer",
          "type": "uint256"
        },
        {
          "indexed": false,
          "internalType": "uint256",
          "name": "endDate",
          "type": "uint256"
        },
        {
          "indexed": false,
          "internalType": "enum Auction.AuctionStatus",
          "name": "status",
          "type": "uint8"
        }
      ],
      "name": "canceledAuction",
      "type": "event"
    },
    {
      "anonymous": false,
      "inputs": [
        {
          "indexed": false,
          "internalType": "uint256",
          "name": "offer",
          "type": "uint256"
        },
        {
          "indexed": false,
          "internalType": "string",
          "name": "description",
          "type": "string"
        },
        {
          "indexed": true,
          "internalType": "address",
          "name": "auction",
          "type": "address"
        },
        {
          "indexed": true,
          "internalType": "address",
          "name": "bidder",
          "type": "address"
        },
        {
          "indexed": false,
          "internalType": "enum Auction.BidStatus",
          "name": "status",
          "type": "uint8"
        }
      ],
      "name": "canceledBid",
      "type": "event"
    },
    {
      "anonymous": false,
      "inputs": [
        {
          "indexed": true,
          "internalType": "address",
          "name": "manager",
          "type": "address"
        },
        {
          "indexed": false,
          "internalType": "string",
          "name": "title",
          "type": "string"
        },
        {
          "indexed": false,
          "internalType": "uint256",
          "name": "maxOffer",
          "type": "uint256"
        },
        {
          "indexed": false,
          "internalType": "string",
          "name": "description",
          "type": "string"
        },
        {
          "indexed": false,
          "internalType": "uint256",
          "name": "submissionDeadline",
          "type": "uint256"
        },
        {
          "indexed": false,
          "internalType": "uint256",
          "name": "startDate",
          "type": "uint256"
        },
        {
          "indexed": false,
          "internalType": "uint256",
          "name": "endDate",
          "type": "uint256"
        },
        {
          "indexed": false,
          "internalType": "enum Auction.AuctionStatus",
          "name": "status",
          "type": "uint8"
        }
      ],
      "name": "createdAuction",
      "type": "event"
    },
    {
      "anonymous": false,
      "inputs": [
        {
          "indexed": true,
          "internalType": "address",
          "name": "manager",
          "type": "address"
        },
        {
          "indexed": false,
          "internalType": "string",
          "name": "title",
          "type": "string"
        },
        {
          "indexed": false,
          "internalType": "string",
          "name": "description",
          "type": "string"
        },
        {
          "indexed": false,
          "internalType": "uint256",
          "name": "maxOffer",
          "type": "uint256"
        },
        {
          "indexed": false,
          "internalType": "uint256",
          "name": "endDate",
          "type": "uint256"
        },
        {
          "indexed": true,
          "internalType": "address",
          "name": "bidder",
          "type": "address"
        },
        {
          "indexed": false,
          "internalType": "uint256",
          "name": "winningBid",
          "type": "uint256"
        },
        {
          "indexed": false,
          "internalType": "enum Auction.AuctionStatus",
          "name": "status",
          "type": "uint8"
        }
      ],
      "name": "finalizedAuction",
      "type": "event"
    },
    {
      "anonymous": false,
      "inputs": [
        {
          "indexed": false,
          "internalType": "uint256",
          "name": "offer",
          "type": "uint256"
        },
        {
          "indexed": false,
          "internalType": "string",
          "name": "description",
          "type": "string"
        },
        {
          "indexed": true,
          "internalType": "address",
          "name": "auction",
          "type": "address"
        },
        {
          "indexed": true,
          "internalType": "address",
          "name": "bidder",
          "type": "address"
        },
        {
          "indexed": false,
          "internalType": "enum Auction.BidStatus",
          "name": "status",
          "type": "uint8"
        }
      ],
      "name": "placedBid",
      "type": "event"
    },
    {
      "inputs": [],
      "name": "auctionInfo",
      "outputs": [
        {
          "internalType": "address",
          "name": "manager",
          "type": "address"
        },
        {
          "internalType": "string",
          "name": "title",
          "type": "string"
        },
        {
          "internalType": "uint256",
          "name": "maxOffer",
          "type": "uint256"
        },
        {
          "internalType": "string",
          "name": "description",
          "type": "string"
        },
        {
          "internalType": "uint256",
          "name": "submissionDeadline",
          "type": "uint256"
        },
        {
          "internalType": "uint256",
          "name": "startDate",
          "type": "uint256"
        },
        {
          "internalType": "uint256",
          "name": "endDate",
          "type": "uint256"
        },
        {
          "internalType": "enum Auction.AuctionStatus",
          "name": "status",
          "type": "uint8"
        }
      ],
      "stateMutability": "view",
      "type": "function"
    },
    {
      "inputs": [],
      "name": "auctionStatus",
      "outputs": [
        {
          "internalType": "enum Auction.AuctionStatus",
          "name": "",
          "type": "uint8"
        }
      ],
      "stateMutability": "view",
      "type": "function"
    },
    {
      "inputs": [
        {
          "internalType": "address",
          "name": "",
          "type": "address"
        }
      ],
      "name": "biddingByBidder",
      "outputs": [
        {
          "internalType": "uint256",
          "name": "offerAmount",
          "type": "uint256"
        },
        {
          "internalType": "string",
          "name": "description",
          "type": "string"
        },
        {
          "internalType": "enum Auction.BidStatus",
          "name": "status",
          "type": "uint8"
        }
      ],
      "stateMutability": "view",
      "type": "function"
    },
    {
      "inputs": [],
      "name": "cancelAuction",
      "outputs": [],
      "stateMutability": "nonpayable",
      "type": "function"
    },
    {
      "inputs": [],
      "name": "cancelBid",
      "outputs": [],
      "stateMutability": "nonpayable",
      "type": "function"
    },
    {
      "inputs": [
        {
          "internalType": "address",
          "name": "_winningBidder",
          "type": "address"
        },
        {
          "internalType": "uint256",
          "name": "_winningBid",
          "type": "uint256"
        }
      ],
      "name": "finalizeAuction",
      "outputs": [],
      "stateMutability": "nonpayable",
      "type": "function"
    },
    {
      "inputs": [],
      "name": "getBidders",
      "outputs": [
        {
          "internalType": "address[]",
          "name": "",
          "type": "address[]"
        }
      ],
      "stateMutability": "view",
      "type": "function"
    },
    {
      "inputs": [],
      "name": "maxBidOffer",
      "outputs": [
        {
          "internalType": "uint256",
          "name": "",
          "type": "uint256"
        }
      ],
      "stateMutability": "view",
      "type": "function"
    },
    {
      "inputs": [
        {
          "internalType": "uint256",
          "name": "_offer",
          "type": "uint256"
        },
        {
          "internalType": "string",
          "name": "description",
          "type": "string"
        }
      ],
      "name": "placeBid",
      "outputs": [],
      "stateMutability": "nonpayable",
      "type": "function"
    },
    {
      "inputs": [],
      "name": "winningBid",
      "outputs": [
        {
          "internalType": "uint256",
          "name": "",
          "type": "uint256"
        }
      ],
      "stateMutability": "view",
      "type": "function"
    },
    {
      "inputs": [],
      "name": "winningBidder",
      "outputs": [
        {
          "internalType": "address",
          "name": "",
          "type": "address"
        }
      ],
      "stateMutability": "view",
      "type": "function"
    }
  ],
  "bytecode": "0x60806040523480156200001157600080fd5b506040516200269d3803806200269d833981810160405281019062000037919062000406565b6000600860006101000a81548160ff0219169083600281111562000084577f4e487b7100000000000000000000000000000000000000000000000000000000600052602160045260246000fd5b02179055506040518061010001604052808873ffffffffffffffffffffffffffffffffffffffff168152602001878152602001868152602001858152602001848152602001838152602001828152602001600860009054906101000a900460ff1660028111156200011e577f4e487b7100000000000000000000000000000000000000000000000000000000600052602160045260246000fd5b8152506000808201518160000160006101000a81548173ffffffffffffffffffffffffffffffffffffffff021916908373ffffffffffffffffffffffffffffffffffffffff160217905550602082015181600101908051906020019062000187929190620002b6565b50604082015181600201556060820151816003019080519060200190620001b0929190620002b6565b506080820151816004015560a0820151816005015560c0820151816006015560e08201518160070160006101000a81548160ff0219169083600281111562000221577f4e487b7100000000000000000000000000000000000000000000000000000000600052602160045260246000fd5b021790555090505060018562000238919062000656565b600d819055508673ffffffffffffffffffffffffffffffffffffffff167fc673846f9408403ade36435887b5080b9fb4b70e53cd05dbf73353fcf4ea39f9878787878787600860009054906101000a900460ff16604051620002a1979695949392919062000548565b60405180910390a2505050505050506200089e565b828054620002c49062000750565b90600052602060002090601f016020900481019282620002e8576000855562000334565b82601f106200030357805160ff191683800117855562000334565b8280016001018555821562000334579182015b828111156200033357825182559160200191906001019062000316565b5b50905062000343919062000347565b5090565b5b808211156200036257600081600090555060010162000348565b5090565b60006200037d620003778462000607565b620005d3565b9050828152602081018484840111156200039657600080fd5b620003a38482856200071a565b509392505050565b600081519050620003bc816200086a565b92915050565b600082601f830112620003d457600080fd5b8151620003e684826020860162000366565b91505092915050565b600081519050620004008162000884565b92915050565b600080600080600080600060e0888a0312156200042257600080fd5b6000620004328a828b01620003ab565b975050602088015167ffffffffffffffff8111156200045057600080fd5b6200045e8a828b01620003c2565b9650506040620004718a828b01620003ef565b955050606088015167ffffffffffffffff8111156200048f57600080fd5b6200049d8a828b01620003c2565b9450506080620004b08a828b01620003ef565b93505060a0620004c38a828b01620003ef565b92505060c0620004d68a828b01620003ef565b91505092959891949750929550565b620004f08162000706565b82525050565b600062000503826200063a565b6200050f818562000645565b9350620005218185602086016200071a565b6200052c8162000842565b840191505092915050565b6200054281620006fc565b82525050565b600060e082019050818103600083015262000564818a620004f6565b905062000575602083018962000537565b8181036040830152620005898188620004f6565b90506200059a606083018762000537565b620005a9608083018662000537565b620005b860a083018562000537565b620005c760c0830184620004e5565b98975050505050505050565b6000604051905081810181811067ffffffffffffffff82111715620005fd57620005fc62000813565b5b8060405250919050565b600067ffffffffffffffff82111562000625576200062462000813565b5b601f19601f8301169050602081019050919050565b600081519050919050565b600082825260208201905092915050565b60006200066382620006fc565b91506200067083620006fc565b9250827fffffffffffffffffffffffffffffffffffffffffffffffffffffffffffffffff03821115620006a857620006a762000786565b5b828201905092915050565b6000620006c082620006dc565b9050919050565b6000819050620006d78262000853565b919050565b600073ffffffffffffffffffffffffffffffffffffffff82169050919050565b6000819050919050565b60006200071382620006c7565b9050919050565b60005b838110156200073a5780820151818401526020810190506200071d565b838111156200074a576000848401525b50505050565b600060028204905060018216806200076957607f821691505b6020821081141562000780576200077f620007e4565b5b50919050565b7f4e487b7100000000000000000000000000000000000000000000000000000000600052601160045260246000fd5b7f4e487b7100000000000000000000000000000000000000000000000000000000600052602160045260246000fd5b7f4e487b7100000000000000000000000000000000000000000000000000000000600052602260045260246000fd5b7f4e487b7100000000000000000000000000000000000000000000000000000000600052604160045260246000fd5b6000601f19601f8301169050919050565b60038110620008675762000866620007b5565b5b50565b6200087581620006b3565b81146200088157600080fd5b50565b6200088f81620006fc565b81146200089b57600080fd5b50565b611def80620008ae6000396000f3fe608060405234801561001057600080fd5b50600436106100a95760003560e01c80638890ed09116100715780638890ed091461015b5780638cf80438146101795780638fa8b790146101975780639435c887146101a15780639d6a0f28146101ab578063cb6632ef146101c9576100a9565b8063204b6542146100ae57806337aab063146100e057806355d64d03146100fc578063689051161461012157806377d323001461013d575b600080fd5b6100c860048036038101906100c3919061134a565b6101e7565b6040516100d793929190611a84565b60405180910390f35b6100fa60048036038101906100f591906113af565b6102a6565b005b610104610640565b6040516101189897969594939291906117f0565b60405180910390f35b61013b60048036038101906101369190611373565b6107b3565b005b610145610c31565b6040516101529190611a69565b60405180910390f35b610163610c37565b60405161017091906117d5565b60405180910390f35b610181610c5d565b60405161018e9190611a69565b60405180910390f35b61019f610c63565b005b6101a9610ea5565b005b6101b3611081565b6040516101c0919061189e565b60405180910390f35b6101d1611094565b6040516101de919061187c565b60405180910390f35b600c60205280600052604060002060009150905080600001549080600101805461021090611c93565b80601f016020809104026020016040519081016040528092919081815260200182805461023c90611c93565b80156102895780601f1061025e57610100808354040283529160200191610289565b820191906000526020600020905b81548152906001019060200180831161026c57829003601f168201915b5050505050908060020160009054906101000a900460ff16905083565b6102ba33600a6110a590919063ffffffff16565b156102fa576040517f08c379a00000000000000000000000000000000000000000000000000000000081526004016102f190611989565b60405180910390fd5b60006002811115610334577f4e487b7100000000000000000000000000000000000000000000000000000000600052602160045260246000fd5b600860009054906101000a900460ff16600281111561037c577f4e487b7100000000000000000000000000000000000000000000000000000000600052602160045260246000fd5b14801561038d575042600060060154115b6103cc576040517f08c379a00000000000000000000000000000000000000000000000000000000081526004016103c3906119c9565b60405180910390fd5b81600d5411610410576040517f08c379a000000000000000000000000000000000000000000000000000000000815260040161040790611a49565b60405180910390fd5b6000800160009054906101000a900473ffffffffffffffffffffffffffffffffffffffff1673ffffffffffffffffffffffffffffffffffffffff163373ffffffffffffffffffffffffffffffffffffffff1614156104a3576040517f08c379a000000000000000000000000000000000000000000000000000000000815260040161049a906119a9565b60405180910390fd5b6040518060600160405280838152602001828152602001600260038111156104f4577f4e487b7100000000000000000000000000000000000000000000000000000000600052602160045260246000fd5b815250600c60003373ffffffffffffffffffffffffffffffffffffffff1673ffffffffffffffffffffffffffffffffffffffff16815260200190815260200160002060008201518160000155602082015181600101908051906020019061055c929190611215565b5060408201518160020160006101000a81548160ff021916908360038111156105ae577f4e487b7100000000000000000000000000000000000000000000000000000000600052602160045260246000fd5b021790555090505081600d819055506105d133600a6110d590919063ffffffff16565b503373ffffffffffffffffffffffffffffffffffffffff163073ffffffffffffffffffffffffffffffffffffffff167f65072d0f6d3ad351cc89d909f7f513570c6817f388505281f13d1f3a16181ab48484600260405161063493929190611a84565b60405180910390a35050565b60008060000160009054906101000a900473ffffffffffffffffffffffffffffffffffffffff169080600101805461067790611c93565b80601f01602080910402602001604051908101604052809291908181526020018280546106a390611c93565b80156106f05780601f106106c5576101008083540402835291602001916106f0565b820191906000526020600020905b8154815290600101906020018083116106d357829003601f168201915b50505050509080600201549080600301805461070b90611c93565b80601f016020809104026020016040519081016040528092919081815260200182805461073790611c93565b80156107845780601f1061075957610100808354040283529160200191610784565b820191906000526020600020905b81548152906001019060200180831161076757829003601f168201915b5050505050908060040154908060050154908060060154908060070160009054906101000a900460ff16905088565b3373ffffffffffffffffffffffffffffffffffffffff166000800160009054906101000a900473ffffffffffffffffffffffffffffffffffffffff1673ffffffffffffffffffffffffffffffffffffffff1614610845576040517f08c379a000000000000000000000000000000000000000000000000000000000815260040161083c90611a29565b60405180910390fd5b6000600281111561087f577f4e487b7100000000000000000000000000000000000000000000000000000000600052602160045260246000fd5b600860009054906101000a900460ff1660028111156108c7577f4e487b7100000000000000000000000000000000000000000000000000000000600052602160045260246000fd5b14610907576040517f08c379a00000000000000000000000000000000000000000000000000000000081526004016108fe906119e9565b60405180910390fd5b600380811115610940577f4e487b7100000000000000000000000000000000000000000000000000000000600052602160045260246000fd5b600c60008473ffffffffffffffffffffffffffffffffffffffff1673ffffffffffffffffffffffffffffffffffffffff16815260200190815260200160002060020160009054906101000a900460ff1660038111156109c8577f4e487b7100000000000000000000000000000000000000000000000000000000600052602160045260246000fd5b1415610a09576040517f08c379a0000000000000000000000000000000000000000000000000000000008152600401610a0090611a09565b60405180910390fd5b81600860016101000a81548173ffffffffffffffffffffffffffffffffffffffff021916908373ffffffffffffffffffffffffffffffffffffffff160217905550806009819055506000600c6000600860019054906101000a900473ffffffffffffffffffffffffffffffffffffffff1673ffffffffffffffffffffffffffffffffffffffff1673ffffffffffffffffffffffffffffffffffffffff16815260200190815260200160002060020160006101000a81548160ff02191690836003811115610aff577f4e487b7100000000000000000000000000000000000000000000000000000000600052602160045260246000fd5b02179055506001600860006101000a81548160ff02191690836002811115610b50577f4e487b7100000000000000000000000000000000000000000000000000000000600052602160045260246000fd5b0217905550600860019054906101000a900473ffffffffffffffffffffffffffffffffffffffff1673ffffffffffffffffffffffffffffffffffffffff166000800160009054906101000a900473ffffffffffffffffffffffffffffffffffffffff1673ffffffffffffffffffffffffffffffffffffffff167f6bbf34d2d01ad3fb36ca9087c36f267a1519c7428fa15c9aba1f6cbabb62fe5160006001016000600301600060020154600060060154600954600860009054906101000a900460ff16604051610c259695949392919061191a565b60405180910390a35050565b600d5481565b600860019054906101000a900473ffffffffffffffffffffffffffffffffffffffff1681565b60095481565b3373ffffffffffffffffffffffffffffffffffffffff166000800160009054906101000a900473ffffffffffffffffffffffffffffffffffffffff1673ffffffffffffffffffffffffffffffffffffffff1614610cf5576040517f08c379a0000000000000000000000000000000000000000000000000000000008152600401610cec90611a29565b60405180910390fd5b60006002811115610d2f577f4e487b7100000000000000000000000000000000000000000000000000000000600052602160045260246000fd5b600860009054906101000a900460ff166002811115610d77577f4e487b7100000000000000000000000000000000000000000000000000000000600052602160045260246000fd5b14610db7576040517f08c379a0000000000000000000000000000000000000000000000000000000008152600401610dae906119c9565b60405180910390fd5b6002600860006101000a81548160ff02191690836002811115610e03577f4e487b7100000000000000000000000000000000000000000000000000000000600052602160045260246000fd5b02179055506000800160009054906101000a900473ffffffffffffffffffffffffffffffffffffffff1673ffffffffffffffffffffffffffffffffffffffff167f410b666f290baedc9120986f74f265477d0cf2d7705eeed9c2edfedb712a857560006001016000600301600060020154600060060154600860009054906101000a900460ff16604051610e9b9594939291906118b9565b60405180910390a2565b60006002811115610edf577f4e487b7100000000000000000000000000000000000000000000000000000000600052602160045260246000fd5b600860009054906101000a900460ff166002811115610f27577f4e487b7100000000000000000000000000000000000000000000000000000000600052602160045260246000fd5b148015610f38575042600060060154115b610f77576040517f08c379a0000000000000000000000000000000000000000000000000000000008152600401610f6e906119c9565b60405180910390fd5b6000600c60003373ffffffffffffffffffffffffffffffffffffffff1673ffffffffffffffffffffffffffffffffffffffff168152602001908152602001600020905060038160020160006101000a81548160ff02191690836003811115611008577f4e487b7100000000000000000000000000000000000000000000000000000000600052602160045260246000fd5b02179055503373ffffffffffffffffffffffffffffffffffffffff163073ffffffffffffffffffffffffffffffffffffffff167ff2cd32970b65c336f808e9867e379718db7a69f0be0a572cfb6ede67be3ea479836000015484600101600360405161107693929190611ac2565b60405180910390a350565b600860009054906101000a900460ff1681565b60606110a0600a611105565b905090565b60006110cd836000018373ffffffffffffffffffffffffffffffffffffffff1660001b611126565b905092915050565b60006110fd836000018373ffffffffffffffffffffffffffffffffffffffff1660001b611149565b905092915050565b60606000611115836000016111b9565b905060608190508092505050919050565b600080836001016000848152602001908152602001600020541415905092915050565b60006111558383611126565b6111ae5782600001829080600181540180825580915050600190039060005260206000200160009091909190915055826000018054905083600101600084815260200190815260200160002081905550600190506111b3565b600090505b92915050565b60608160000180548060200260200160405190810160405280929190818152602001828054801561120957602002820191906000526020600020905b8154815260200190600101908083116111f5575b50505050509050919050565b82805461122190611c93565b90600052602060002090601f016020900481019282611243576000855561128a565b82601f1061125c57805160ff191683800117855561128a565b8280016001018555821561128a579182015b8281111561128957825182559160200191906001019061126e565b5b509050611297919061129b565b5090565b5b808211156112b457600081600090555060010161129c565b5090565b60006112cb6112c684611b31565b611b00565b9050828152602081018484840111156112e357600080fd5b6112ee848285611c51565b509392505050565b60008135905061130581611d8b565b92915050565b600082601f83011261131c57600080fd5b813561132c8482602086016112b8565b91505092915050565b60008135905061134481611da2565b92915050565b60006020828403121561135c57600080fd5b600061136a848285016112f6565b91505092915050565b6000806040838503121561138657600080fd5b6000611394858286016112f6565b92505060206113a585828601611335565b9150509250929050565b600080604083850312156113c257600080fd5b60006113d085828601611335565b925050602083013567ffffffffffffffff8111156113ed57600080fd5b6113f98582860161130b565b9150509250929050565b600061140f838361141b565b60208301905092915050565b61142481611bcb565b82525050565b61143381611bcb565b82525050565b600061144482611b86565b61144e8185611ba9565b935061145983611b61565b8060005b8381101561148a5781516114718882611403565b975061147c83611b9c565b92505060018101905061145d565b5085935050505092915050565b6114a081611c2d565b82525050565b6114af81611c3f565b82525050565b60006114c082611b91565b6114ca8185611bba565b93506114da818560208601611c60565b6114e381611d52565b840191505092915050565b600081546114fb81611c93565b6115058186611bba565b94506001821660008114611520576001811461153257611565565b60ff1983168652602086019350611565565b61153b85611b71565b60005b8381101561155d5781548189015260018201915060208101905061153e565b808801955050505b50505092915050565b600061157b601783611bba565b91507f557365722068617320616c7265616479206a6f696e65640000000000000000006000830152602082019050919050565b60006115bb602283611bba565b91507f596f752063616e277420626964206f6e20796f7572206f776e2061756374696f60008301527f6e2e0000000000000000000000000000000000000000000000000000000000006020830152604082019050919050565b6000611621602383611bba565b91507f41756374696f6e2068617320616c7265616479206265656e2066696e616c697a60008301527f65642e00000000000000000000000000000000000000000000000000000000006020830152604082019050919050565b6000611687602283611bba565b91507f41756374696f6e2068617320616c7265616479206265656e2066696e616c697a60008301527f65640000000000000000000000000000000000000000000000000000000000006020830152604082019050919050565b60006116ed601d83611bba565b91507f4269642068617320616c7265616479206265656e2063616e63656c65640000006000830152602082019050919050565b600061172d601583611bba565b91507f43616c6c6572206973206e6f74206d616e6167657200000000000000000000006000830152602082019050919050565b600061176d603183611bba565b91507f4f66666572206e6565647320746f20626520736d616c6c6572207468616e207460008301527f68652070726576696f7573206f666665720000000000000000000000000000006020830152604082019050919050565b6117cf81611c23565b82525050565b60006020820190506117ea600083018461142a565b92915050565b600061010082019050611806600083018b61142a565b8181036020830152611818818a6114b5565b905061182760408301896117c6565b818103606083015261183981886114b5565b905061184860808301876117c6565b61185560a08301866117c6565b61186260c08301856117c6565b61186f60e0830184611497565b9998505050505050505050565b600060208201905081810360008301526118968184611439565b905092915050565b60006020820190506118b36000830184611497565b92915050565b600060a08201905081810360008301526118d381886114ee565b905081810360208301526118e781876114ee565b90506118f660408301866117c6565b61190360608301856117c6565b6119106080830184611497565b9695505050505050565b600060c082019050818103600083015261193481896114ee565b9050818103602083015261194881886114ee565b905061195760408301876117c6565b61196460608301866117c6565b61197160808301856117c6565b61197e60a0830184611497565b979650505050505050565b600060208201905081810360008301526119a28161156e565b9050919050565b600060208201905081810360008301526119c2816115ae565b9050919050565b600060208201905081810360008301526119e281611614565b9050919050565b60006020820190508181036000830152611a028161167a565b9050919050565b60006020820190508181036000830152611a22816116e0565b9050919050565b60006020820190508181036000830152611a4281611720565b9050919050565b60006020820190508181036000830152611a6281611760565b9050919050565b6000602082019050611a7e60008301846117c6565b92915050565b6000606082019050611a9960008301866117c6565b8181036020830152611aab81856114b5565b9050611aba60408301846114a6565b949350505050565b6000606082019050611ad760008301866117c6565b8181036020830152611ae981856114ee565b9050611af860408301846114a6565b949350505050565b6000604051905081810181811067ffffffffffffffff82111715611b2757611b26611d23565b5b8060405250919050565b600067ffffffffffffffff821115611b4c57611b4b611d23565b5b601f19601f8301169050602081019050919050565b6000819050602082019050919050565b60008190508160005260206000209050919050565b600081519050919050565b600081519050919050565b6000602082019050919050565b600082825260208201905092915050565b600082825260208201905092915050565b6000611bd682611c03565b9050919050565b6000819050611beb82611d63565b919050565b6000819050611bfe82611d77565b919050565b600073ffffffffffffffffffffffffffffffffffffffff82169050919050565b6000819050919050565b6000611c3882611bdd565b9050919050565b6000611c4a82611bf0565b9050919050565b82818337600083830152505050565b60005b83811015611c7e578082015181840152602081019050611c63565b83811115611c8d576000848401525b50505050565b60006002820490506001821680611cab57607f821691505b60208210811415611cbf57611cbe611cf4565b5b50919050565b7f4e487b7100000000000000000000000000000000000000000000000000000000600052602160045260246000fd5b7f4e487b7100000000000000000000000000000000000000000000000000000000600052602260045260246000fd5b7f4e487b7100000000000000000000000000000000000000000000000000000000600052604160045260246000fd5b6000601f19601f8301169050919050565b60038110611d7457611d73611cc5565b5b50565b60048110611d8857611d87611cc5565b5b50565b611d9481611bcb565b8114611d9f57600080fd5b50565b611dab81611c23565b8114611db657600080fd5b5056fea26469706673582212203f84afd37b0f9a70304e2cd5b5bdd138b8f7e112413711c6d2df9903c305765b64736f6c63430008000033",
  "linkReferences": {},
  "deployedLinkReferences": {}
}